:100000000C948C010C94A9010C94A9010C94A901E5
:100010000C94A9010C94A9010C94A9010C94A901B8
:100020000C94A9010C94A9010C94A9010C94A901A8
:100030000C94A9010C9414060C947B080C94A9014F
:100040000C94A9010C94A9010C94A0080C94A9018A
:100050000C94D8080C94A9010C94A9010C94A90142
:100060000C94A9010C94A901BC5F9C60A4618462FA
:10007000B6639664B0659F66B5678968A969FFFF36
:100080000000000000000000002F0000000007003A
:10009000070000147F147F1400242A7F2A120062B4
:1000A0006408132300364955225000000503000060
:1000B00000001C224100000041221C000014083EE8
:1000C00008140008083E0808000000A060000008AE
:1000D0000808080800006060000000201008040202
:1000E000003E5149453E0000427F400000426151C0
:1000F0004946002141454B31001814127F1000275A
:1001000045454539003C4A4949300001710905031C
:1001100000364949493600064949291E000036364D
:1001200000000000563600000008142241000014B0
:10013000141414140000412214080002015109068D
:1001400000324959513E007C1211127C007F49490E
:100150004936003E41414122007F4141221C007F3F
:1001600049494941007F09090901003E4149497A4D
:10017000007F0808087F0000417F410000204041C7
:100180003F01007F08142241007F40404040007F33
:10019000020C027F007F0408107F003E4141413E77
:1001A000007F09090906003E4151215E007F0919BF
:1001B00029460046494949310001017F0101003FBC
:1001C0004040403F001F2040201F003F4038403F3C
:1001D00000631408146300070870080700615149A0
:1001E000454300007F41410000552A552A55000033
:1001F00041417F00000402010204004040404040B1
:10020000000001020400002054545478007F484448
:10021000443800384444442000384444487F00387F
:100220005454541800087E0901020018A4A4A47CA8
:10023000007F080404780000447D40000040808472
:100240007D00007F102844000000417F4000007CBA
:1002500004180478007C08040478003844444438C6
:1002600000FC242424180018242418FC007C080412
:10027000040800485454542000043F444020003CEB
:100280004040207C001C2040201C003C4030403C72
:10029000004428102844001CA0A0A07C0044645402
:1002A0004C4400000877410000000063000000009B
:1002B00041770800000804080804003A4040207A0A
:1002C000003D4040403D002154545479007D1211BE
:1002D000127D003944444439003D4242423D00020F
:1002E00005020000007E01495573007C1010081CB7
:1002F000003048204830005C6202625CAE2000B0F2
:10030000C8001040813FA1A6A83FA4D300D5F0D9D2
:1003100022DA12DB208D140011241FBECFEFD8E0AB
:10032000DEBFCDBF11E0A0E0B1E0EAEDFCE102C02C
:1003300005900D92A232B107D9F725E0A2E2B1E013
:1003400001C01D92AE3BB207E1F70E94E9060C9492
:100350006B0E0C9400001092B90088E48093B800F2
:1003600084E08093BC00089594EA9093BC0020E45C
:1003700031E009C02150310931F48091AD0581602F
:100380008093AD0508959091BC0099231CF0211530
:10039000310581F78093BB0084E88093BC0080E442
:1003A00091E008C0019731F48091AD05826080939F
:1003B000AD0508952091BC00222314F0009791F719
:1003C000089584E98093BC0008958093BB0084E87D
:1003D0008093BC0080E491E008C0019731F48091E3
:1003E000AD0584608093AD0508952091BC00222363
:1003F00014F0009791F708950F931F93CF93DF9315
:100400008C01D62F88E70E94B40180E00E94E501AC
:10041000C0E007C0F801EC0FF11D80810E94E501EA
:10042000CF5FCD17B8F30E94E101DF91CF911F910B
:100430000F910895EF92FF920F931F93CF93DF9345
:100440007C018B0188E70E94B40180E40E94E501F1
:10045000C0E0D0E007C0F701EC0FFD1F80810E94D3
:10046000E5012196C017D107B0F30E94E101DF91A9
:10047000CF911F910F91FF90EF900895CF93DF934D
:1004800000D000D01F92CDB7DEB7813818F56830A4
:1004900008F5E2E2F5E0808361836055698391E2CB
:1004A0009A8392E0980F9F709B8390E00296807FE2
:1004B0009927959587959595879595958795959580
:1004C0008795805F8C838FE78D8365E0CE010196F1
:1004D0000E94FC010F900F900F900F900F90DF91F2
:1004E000CF910895982F990F980F892F880F0E9408
:1004F0003E02089560E080E00E94720208950F932A
:100500001F93CF93C0E015C080E8C89F80011124DD
:100510000E5D1E4F80E8F80111928A95E9F76C2F65
:1005200080E00E94720260E870E0C8010E941A0236
:10053000CF5FC83048F30E947A02CF911F910F918C
:1005400008951F93CF93DF93CDB7DEB76C970FB6A7
:10055000F894DEBF0FBECDBF182F0E94AB0120E084
:100560000EC0822F90E0FC01E450FD4FE491A1E029
:10057000B0E0AC0FBD1FA80FB91FEC932F5F2B315C
:1005800080F31C8F6CE1CE0101960E94FC010E9459
:100590007F026C960FB6F894DEBF0FBECDBFDF9121
:1005A000CF911F910895CF93DF9300D0CDB7DEB7E1
:1005B00091E899838A8362E0CE0101960E94FC0152
:1005C0000F900F90DF91CF910895DF92EF92FF92FD
:1005D0000F931F93CF93DF93CDB7DEB72C970FB652
:1005E000F894DEBF0FBECDBF893009F118F4883012
:1005F00039F053C08A30F1F18D3009F448C04DC054
:1006000002E215E0D8018C919091000111966C9155
:10061000891B0E94720280E20E94E502F80180813B
:10062000909100016181891B0E9472023BC18091FF
:10063000220590910001292F30E0220F331F220F55
:10064000331FB901680F711D45E150E07A01E21ACC
:10065000F30A6E157F0540F4990F990F60912305F9
:10066000890F0E9472021EC16091230585E10E94DC
:10067000720218C180912305873008F013C1609180
:100680000001680F809122050E9472020BC16091E7
:10069000230580E00E94720205C1409122054A377D
:1006A00008F000C1803208F4FDC08052E9E6F0E0B5
:1006B000E4918E1798F422C0F901EE0FFF1FE8595C
:1006C000FF4FE491F0E0B097282F30E0E217F307F6
:1006D00019F4FB0184910FC09F5F01C090E0292FA6
:1006E00030E0B901660F771F67597F4FFB015491C6
:1006F0005F3F11F78FEF8F3F09F4D4C09091000155
:10070000923009F0A0C0242F30E0245F3F4F213801
:10071000310508F0C7C050E054C0052F10E0F801C3
:10072000EE0FFF1FEE24E394F12CEC0EFD1EEE0DF8
:10073000FF1D11821082282F30E0F901EE0FFF1FFC
:10074000E20FF31FEE0FFF1FE00FF11FE058FF4F06
:10075000D49090E033C0692F70E02D2D30E0092E49
:1007600002C0359527950A94E2F720FF26C0660F50
:10077000771FE1E0F0E09F01062E02C0220F331F39
:100780000A94E2F7D801AA0FBB1FEE24E394F12CE0
:10079000EC0EFD1EAE0DBF1DED90FC901197E22AF0
:1007A000F32A6F5F7F4F9F0102C0220F331F6A95AC
:1007B000E2F72E293F292D933C939F5F983058F202
:1007C0005F5F563008F4A9CF50E037C02091230571
:1007D00030E0C9010196E52FF0E0EE0FFF1FBF01E9
:1007E000640F711DA1E0B0E0AC0FBD1FEA0FFB1F4D
:1007F000A081B1819695982F8827979587958E5DD2
:100800009E4FFC01E60FF71FB0838B010F5F1F4F58
:10081000800F911FFC01B0833695322F2227379528
:100820002795C9018E5D9E4F680F791FFB01A0833C
:10083000F801E80FF91FA0835F5F563038F2445F7C
:10084000409322052FC0242F30E02A5F3F4F2138EC
:10085000310540F590E021C06091230570E0292F1B
:1008600030E0D901A40FB11DE82FF0E08F01000F97
:10087000111FE00FF11FEE0FFF1FE20FF31FE058F3
:10088000FF4FE4917695762F6627779567956E5D95
:100890007E4FA60FB71FEC939F5F9630E8F24A5F3A
:1008A000409322052C960FB6F894DEBF0FBECDBF45
:1008B000DF91CF911F910F91FF90EF90DF900895FE
:1008C000CF93DF93EC0103C021960E94E50288815B
:1008D0008111FACFDF91CF9108958823BCF1603464
:1008E000B8F54130C9F4E62FE695E695E6956770D0
:1008F00021E030E002C0220F331F6A95E2F790E852
:10090000E99FF0011124EE5DFE4FE80FF11D80819B
:10091000282B208380E00895E62FE695E695E6955E
:10092000677021E030E002C0220F331F6A95E2F7C2
:1009300090E8E99FF0011124EE5DFE4FE80FF11DF4
:10094000209580812823208380E0089581E0089508
:1009500081E008955F926F927F928F929F92AF9203
:10096000BF92CF92DF92EF92FF920F931F93CF939C
:10097000DF93C82FD62F142F622E842F90E08C1B6C
:1009800091096C0122F4CC24DD24C81AD90AC117BC
:1009900018F47724739402C077247A94862D90E01B
:1009A0008D1B91095C0122F4AA24BB24A81AB90A60
:1009B0004501B194A194B108D61518F45524539467
:1009C00002C055245A947601E818F908402F6D2F7B
:1009D0008C2F0E946D04C11302C0D61581F0C7018F
:1009E000880F991FA816B9061CF4E818F908C70D56
:1009F0008C159D055CF7EC0CFD1CD50DE7CFDF9148
:100A0000CF911F910F91FF90EF90DF90CF90BF900B
:100A1000AF909F908F907F906F905F9008954F92CE
:100A20005F926F927F928F929F92AF92BF92CF927E
:100A3000DF92EF92FF920F931F93CF93DF93682E75
:100A4000562ED42FC22FE42EF12C81E090E06C01C1
:100A5000CE18DF08AA24BB24AE18BF08AA0CBB1C02
:100A6000642F650D422F862D0E946D04652D6D1B30
:100A70004C2F862D0E946D044C2F652D8D2F860DD9
:100A80000E946D044C2F652D862D8D1B0E946D04D8
:100A900000E010E088248394912C49C0DD2044F0CC
:100AA00081E0E81AF10882E0A80EB11CCA0CDB1C38
:100AB0000F5F1F4F82E0880E911CC80CD91C462C7A
:100AC000400E4C2FD52DDE0D6D2F842D0E946D0410
:100AD000762C701A4C2F6D2F872D0E946D044C2F91
:100AE000D52DDE196D2F842D0E946D044C2F6D2F96
:100AF000872D0E946D04D52DD00F4C2F6D2F762C95
:100B00007E0C872D0E946D044C2F6D2FD62DDE1983
:100B10008D2F0E946D04452C401A4C2F642D872D7B
:100B20000E946D044C2F642D8D2F0E946D040E15B4
:100B30001F050CF4B3CFDF91CF911F910F91FF9060
:100B4000EF90DF90CF90BF90AF909F908F907F906D
:100B50006F905F904F900895FF920F931F93CF93E4
:100B6000DF93F82E062FD42F122FC0E008C0212FBC
:100B70004C2F602F8F2D0E940F05982FCF5FDC1711
:100B8000B0F7892FDF91CF911F910F91FF900895BA
:100B900021E045E06AE380E40E94AC0521E04AE000
:100BA00065E380E40E940F0521E044E16BE280E40C
:100BB0000E940F0521E04EE161E280E40E940F05F2
:100BC0000895CF93C0E00FC06C2F80E00E947202A6
:100BD00020E8C29FC001112460E870E08E5D9E4F46
:100BE0000E941A02CF5FC83078F3CF91089580E059
:100BF0000CC090E8899FF0011124EE5DFE4F90E853
:100C0000DF011D929A95E9F78F5F883090F3089580
:100C100021E020932405209124052111FCCF9093FD
:100C200089008093880008951F920F920FB60F924B
:100C30001124109224050F900FBE0F901F9018954D
:100C400084B1866084B984B18E7F84B9E0E8F0E035
:100C5000808182688083EFE6F0E08081816080831C
:100C600087E0809389008FEC809388008CE98093E3
:100C700087008FE380938600E1E8F0E080818A615D
:100C800080837894089585B18B7F85B98AE08A95B1
:100C9000F1F700C085B1846085B985E38A95F1F7E5
:100CA000000085B18B7F85B908951092BA05109226
:100CB000BB051092BC051092BD051092B6051092AE
:100CC000B7051092B8051092B905189BFECF809118
:100CD000840090918500A0E0B0E08093BA059093E5
:100CE000BB05A093BC05B093BD051899FECF8091BC
:100CF000840090918500A0E0B0E08093B6059093C9
:100D0000B705A093B805B093B9058091B605909149
:100D1000B705A091B805B091B9054091BA055091B9
:100D2000BB056091BC057091BD05841B950BA60B9E
:100D3000B70B8093B2059093B305A093B405B0931D
:100D4000B5056091B2057091B3058091B40590919D
:100D5000B5052AE330E040E050E00E94450B2093C7
:100D6000AE053093AF054093B0055093B10508959B
:100D7000CF92DF92EF92FF92CF93DF93EB01BC0112
:100D800080E090E00E944A0A6B017C01BE0180E095
:100D900090E00E944A0A9B01AC01C701B6010E9483
:100DA000A90920E030E84BE355E40E94D80A20E08E
:100DB00030EE49EF54E40E943D090E941B0ACB012A
:100DC0000E940806DF91CF91FF90EF90DF90CF90C7
:100DD0000895CF93DF93CDB7DEB72A970FB6F89477
:100DE000DEBF0FBECDBF40E060E875E280E090E07E
:100DF0000E94E7080E9420068FEA0E94A10280E577
:100E00000E94D30260E870E080E090E00E94B806A3
:100E10000F2EFBE0CF2ED12CF02DAEC00E9443064A
:100E20000E9455060E94C805FC2C01E02AE04C2DCA
:100E30006CE380E40E94AA040E94E1050E94F70589
:100E40008091AE059091AF05A091B005B091B1052C
:100E50004F97A105B10508F474C07BC00E944306FA
:100E60000E9455068091AE059091AF05A091B00506
:100E7000B091B1054F97A105B10508F065C082E0BA
:100E800091E00E9421098091AE059091AF05A0915B
:100E9000B005B091B105BF93AF939F938F9384E159
:100EA00091E09F938F938E010F5F1F4F1F930F93BE
:100EB0000E94810B87E191E00E942109C8010E94F4
:100EC000210982E191E00E9421096091AE057091B3
:100ED000AF058091B0059091B1058F2D0E947202EF
:100EE000C8010E9460040E94C8056091AE0570911F
:100EF000AF058091B0059091B10521E043E08F2DC1
:100F00000E94AC052091AE053091AF054091B0052F
:100F10005091B10501E04F2D6CE380E40E94AA04DA
:100F20000E94E1052FEF89E698E121508040904032
:100F3000E1F700C000000FB6F894DEBF0FBECDBFD2
:100F400004C0EE24E39401C0E12C91E0E91609F419
:100F500085CF60E870E080E890E08C199D090E94E0
:100F6000B8060E94F7058FE19EE40197F1F700C0F3
:100F700000009FEFC91AD90A26E7C216D10408F467
:100F80004DCF0F2EF5E7CF2ED12CF02DAEC00E9405
:100F900043060E9455060E94C805FC2C01E02AE089
:100FA0004C2D6CE380E40E94AA040E94E1050E949B
:100FB000F7058091AE059091AF05A091B005B09175
:100FC000B1054F97A105B10508F474C07BC00E941C
:100FD00043060E9455068091AE059091AF05A09101
:100FE000B005B091B1054F97A105B10508F065C0F6
:100FF00082E091E00E9421098091AE059091AF05B9
:10100000A091B005B091B105BF93AF939F938F931B
:1010100084E191E09F938F938E010F5F1F4F1F9389
:101020000F930E94810B87E191E00E942109C80182
:101030000E94210982E191E00E9421096091AE05A0
:101040007091AF058091B0059091B1058F2D0E94F0
:101050007202C8010E9460040E94C8056091AE053A
:101060007091AF058091B0059091B10521E043E00A
:101070008F2D0E94AC052091AE053091AF054091B7
:10108000B0055091B10501E04F2D6CE380E40E9462
:10109000AA040E94E1058FEF99E628E18150904073
:1010A0002040E1F700C000000FB6F894DEBF0FBE8D
:1010B000CDBF04C0EE24E39401C0E12C91E0E91619
:1010C00009F485CF60E870E080E890E08C199D0914
:1010D0000E94B8060E94F7058FE19EE40197F1F7A0
:1010E00000C0000091E0C91AD1082BE0C216D1045B
:1010F00008F04DCF8DCE1F920F920FB60F92112494
:101100008F939F93AF93BF93809125059091260570
:10111000A0912705B09128050196A11DB11D8093CE
:10112000250590932605A0932705B0932805BF9128
:10113000AF919F918F910F900FBE0F901F901895B8
:101140001F920F920FB60F9211248F939F93EF93DC
:10115000FF93E0912905F0912A058091C600E35D97
:10116000FA4F808380912B0590912C0501969093E6
:101170002C0580932B058091290590912A050196D5
:1011800090932A05809329058091290590912A053D
:101190008038910520F010922A0510922905FF91C0
:1011A000EF919F918F910F900FBE0F901F90189508
:1011B0001F920F920FB60F9211248F9381E08093AC
:1011C00001018F910F900FBE0F901F90189544232F
:1011D00039F0E0ECF0E0208122602083A8E001C03B
:1011E000A0E1B0E09B01AC010E94670B9B01AC0148
:1011F00060E074E284EF90E00E94450BBA01A9011F
:101200004150510961097109DB01CA0188279F70AA
:10121000AA27BB27892F9A2FAB2FBB278093C50006
:101220004093C400E1ECF0E08081886D80830895F4
:10123000909101019923E1F3109201018093C6007E
:1012400008950F931F93CF93DF938C01C0E0D0E0FC
:10125000F801EC0FFD1F80810E9418092196F8010A
:10126000EC0FFD1F80818111F3CF0E941809DF91DF
:10127000CF911F910F9108955058BB27AA270E9424
:1012800054090C949E0A0E94900A38F00E94970A12
:1012900020F039F49F3F19F426F40C948D0A0EF4D3
:1012A000E095E7FB0C94870AE92F0E94AF0A58F3F8
:1012B000BA17620773078407950720F079F4A6F53B
:1012C0000C94D10A0EF4E0950B2EBA2FA02D0B0131
:1012D000B90190010C01CA01A0011124FF27591B7B
:1012E00099F0593F50F4503E68F11A16F040A22F81
:1012F000232F342F4427585FF3CF469537952795F2
:10130000A795F0405395C9F77EF41F16BA0B620BF0
:10131000730B840BBAF09150A1F0FF0FBB1F661F37
:10132000771F881FC2F70EC0BA0F621F731F841F7A
:1013300048F4879577956795B795F7959E3F08F0A0
:10134000B0CF9395880F08F09927EE0F9795879562
:1013500008950E94BD090C949E0A0E94970A58F0B5
:101360000E94900A40F029F45F3F29F00C94870A0C
:1013700051110C94D20A0C948D0A0E94AF0A68F3A2
:101380009923B1F3552391F3951B550BBB27AA273E
:1013900062177307840738F09F5F5F4F220F331F78
:1013A000441FAA1FA9F335D00E2E3AF0E0E832D040
:1013B00091505040E695001CCAF72BD0FE2F29D043
:1013C000660F771F881FBB1F261737074807AB0715
:1013D000B0E809F0BB0B802DBF01FF2793585F4F8A
:1013E0003AF09E3F510578F00C94870A0C94D20A8B
:1013F0005F3FE4F3983ED4F3869577956795B7956C
:10140000F7959F5FC9F7880F911D9695879597F976
:101410000895E1E0660F771F881FBB1F62177307EF
:101420008407BA0720F0621B730B840BBA0BEE1F04
:1014300088F7E09508950E94B70A88F09F5798F0C2
:10144000B92F9927B751B0F0E1F0660F771F881FC9
:10145000991F1AF0BA95C9F714C0B13091F00E94E3
:10146000D10AB1E008950C94D10A672F782F88270C
:10147000B85F39F0B93FCCF3869577956795B3950A
:10148000D9F73EF490958095709561957F4F8F4F79
:101490009F4F0895E89409C097FB3EF4909580957E
:1014A000709561957F4F8F4F9F4F9923A9F0F92F2A
:1014B00096E9BB279395F695879577956795B795A8
:1014C000F111F8CFFAF4BB0F11F460FF1BC06F5F8E
:1014D0007F4F8F4F9F4F16C0882311F096E911C0A0
:1014E000772321F09EE8872F762F05C0662371F0C1
:1014F00096E8862F70E060E02AF09A95660F771FD5
:10150000881FDAF7880F9695879597F9089597F9C8
:101510009F6780E870E060E008959FEF80EC089599
:1015200000240A94161617061806090608950024C2
:101530000A9412161306140605060895092E03943C
:10154000000C11F4882352F0BB0F40F4BF2B11F4B0
:1015500060FF04C06F5F7F4F8F4F9F4F089557FD0F
:101560009058440F551F59F05F3F71F04795880F11
:1015700097FB991F61F09F3F79F0879508951216A8
:1015800013061406551FF2CF4695F1DF08C0161654
:1015900017061806991FF1CF869571056105089405
:1015A0000895E894BB2766277727CB0197F908951C
:1015B0000E94EB0A0C949E0A0E94900A38F00E9446
:1015C000970A20F0952311F00C94870A0C948D0A49
:1015D00011240C94D20A0E94AF0A70F3959FC1F3B4
:1015E000950F50E0551F629FF001729FBB27F00DD1
:1015F000B11D639FAA27F00DB11DAA1F649F662726
:10160000B00DA11D661F829F2227B00DA11D621F74
:10161000739FB00DA11D621F839FA00D611D221F2E
:10162000749F3327A00D611D231F849F600D211D12
:10163000822F762F6A2F11249F5750409AF0F1F095
:1016400088234AF0EE0FFF1FBB1F661F771F881FFE
:1016500091505040A9F79E3F510580F00C94870AA5
:101660000C94D20A5F3FE4F3983ED4F386957795C5
:101670006795B795F795E7959F5FC1F7FE2B880FA4
:10168000911D9695879597F90895A1E21A2EAA1BA8
:10169000BB1BFD010DC0AA1FBB1FEE1FFF1FA21722
:1016A000B307E407F50720F0A21BB30BE40BF50B1F
:1016B000661F771F881F991F1A9469F760957095A8
:1016C000809590959B01AC01BD01CF0108950E94CA
:1016D000720BA59F900DB49F900DA49F800D911D3E
:1016E00011240895A29FB001B39FC001A39F700D64
:1016F000811D1124911DB29F700D811D1124911D1A
:101700000895AEE0B0E0E7E8FBE00C94420E0D89EE
:101710001E8986E08C831A8309838FEF9FE79E835F
:101720008D83AE01475E5F4F6F89788DCE01019644
:101730000E94A30BEF81F885E00FF11F10822E9617
:10174000E4E00C945E0EABE0B0E0E9EAFBE00C9460
:10175000340E6C017B018A01FC01178216828381A1
:1017600081FFCCC1CE0101963C01F6019381F701C6
:1017700093FD859193FF81917F01882309F4BAC17C
:10178000853239F493FD859193FF81917F018532F4
:1017900029F4B60190E00E949A0DE7CF912C212CFC
:1017A000312CFFE1F315D8F08B3279F038F4803228
:1017B00079F08332A1F4232D20611DC08D3261F0B8
:1017C000803369F4232D216016C0832D8260382E6A
:1017D000E32DE4603E2E2AC0F32DF8601DC037FCD7
:1017E0002DC020ED280F2A3040F08E32B9F436FC9F
:1017F00081C1232D2064322E19C036FE06C08AE036
:10180000989E200D1124922E11C0EAE02E9E200DEC
:101810001124222EF32DF0623F2E08C08C3621F4C5
:10182000832D8068382E02C0883641F4F70193FD7D
:10183000859193FF81917F018111B3CF982F9F7D77
:101840009554933028F40C5F1F4F9FE399830DC08C
:10185000833631F0833771F0833509F059C021C0E8
:10186000F801808189830E5F1F4F88248394912C17
:10187000530113C02801F2E04F0E511CF801A08063
:10188000B18036FE03C0692D70E002C06FEF7FEFBC
:10189000C5010E948F0D4C018201F32DFF773F2E71
:1018A00016C0280122E0420E511CF801A080B18030
:1018B00036FE03C0692D70E002C06FEF7FEFC501F7
:1018C0000E94840D4C01F32DF0683F2E820133FC01
:1018D0001BC0822D90E088169906B0F4B60180E214
:1018E00090E00E949A0D2A94F4CFF50137FC85917F
:1018F00037FE81915F01B60190E00E949A0D2110A0
:101900002A9421E0821A91088114910471F7E8C0A9
:10191000843611F0893641F5F80137FE07C0608141
:101920007181828193810C5F1F4F08C0608171813A
:10193000072E000C880B990B0E5F1F4FF32DFF76BF
:101940003F2E97FF09C090958095709561957F4FC8
:101950008F4F9F4FF0683F2E2AE030E0A3010E9496
:10196000D60D882E861845C0853731F4232D2F7E5D
:10197000B22E2AE030E025C0932D997FB92E8F3604
:10198000C1F018F4883579F0B5C0803719F0883780
:1019900021F0B0C0E92FE061BE2EB4FE0DC0FB2DDA
:1019A000F460BF2E09C034FE0AC0292F2660B22E73
:1019B00006C028E030E005C020E130E002C020E1B0
:1019C00032E0F801B7FE07C06081718182819381A6
:1019D0000C5F1F4F06C06081718180E090E00E5F58
:1019E0001F4FA3010E94D60D882E8618FB2DFF776E
:1019F0003F2E36FE0DC0232D2E7FA22E891458F4C3
:101A000034FE0BC032FC09C0832D8E7EA82E05C08B
:101A1000B82CA32C03C0B82C01C0B92CA4FE0FC055
:101A2000FE01E80DF11D8081803321F49A2D997E0D
:101A3000A92E09C0A2FE06C0B394B39404C08A2D97
:101A4000867809F0B394A3FC11C0A0FE06C0B214BE
:101A500088F4280C922C9B180EC0B21460F4B601C6
:101A600080E290E00E949A0DB394F7CFB21418F47C
:101A70002B1802C0982C212CA4FE10C0B60180E3C4
:101A800090E00E949A0DA2FE17C0A1FC03C088E757
:101A900090E002C088E590E0B6010CC08A2D8678FF
:101AA00059F0A1FE02C08BE201C080E2A7FC8DE2EA
:101AB000B60190E00E949A0D891438F4B60180E3D3
:101AC00090E00E949A0D9A94F7CF8A94F301E80D62
:101AD000F11D8081B60190E00E949A0D8110F5CF32
:101AE000222009F442CEB60180E290E00E949A0DD5
:101AF0002A94F6CFF6018681978102C08FEF9FEF7F
:101B00002B96E2E10C94500EFC0105906150704060
:101B10000110D8F7809590958E0F9F1F0895FC01B6
:101B20006150704001900110D8F7809590958E0F0C
:101B30009F1F08950F931F93CF93DF93FB01238182
:101B400021FD03C08FEF9FEF2CC022FF16C04681FE
:101B50005781248135814217530744F4A081B18114
:101B60009D012F5F3F4F318320838C9326813781E6
:101B70002F5F3F4F3783268314C08B01EC01FB019D
:101B80000084F185E02D0995892BE1F6D8011696A0
:101B90008D919C911797019617969C938E9316970B
:101BA000CE01DF91CF911F910F910895FA01AA27DD
:101BB000283051F1203181F1E8946F936E7F6E5F90
:101BC0007F4F8F4F9F4FAF4FB1E03ED0B4E03CD03E
:101BD000670F781F891F9A1FA11D680F791F8A1F21
:101BE000911DA11D6A0F711D811D911DA11D20D088
:101BF00009F468943F912AE0269F11243019305D42
:101C00003193DEF6CF010895462F4770405D419332
:101C1000B3E00FD0C9F7F6CF462F4F70405D4A337F
:101C200018F0495D31FD4052419302D0A9F7EACF47
:101C3000B4E0A6959795879577956795BA95C9F776
:101C400000976105710508959B01AC010A2E069469
:101C50005795479537952795BA95C9F7620F731F22
:101C6000841F951FA01D08952F923F924F925F925F
:101C70006F927F928F929F92AF92BF92CF92DF929C
:101C8000EF92FF920F931F93CF93DF93CDB7DEB701
:101C9000CA1BDB0B0FB6F894DEBF0FBECDBF099495
:101CA0002A88398848885F846E847D848C849B84EC
:101CB000AA84B984C884DF80EE80FD800C811B81FA
:101CC000AA81B981CE0FD11D0FB6F894DEBF0FBE29
:0A1CD000CDBFED010895F894FFCF99
:101CDA0001014F626A6563742064657465637465A3
:101CEA0064210A0025750044697374616E63653A5C
:021CFA002000C8
:00000001FF
